{
  "abi": [
    {
      "inputs": [],
      "stateMutability": "nonpayable",
      "type": "constructor"
    },
    {
      "anonymous": false,
      "inputs": [
        {
          "indexed": true,
          "internalType": "address",
          "name": "previousOwner",
          "type": "address"
        },
        {
          "indexed": true,
          "internalType": "address",
          "name": "newOwner",
          "type": "address"
        }
      ],
      "name": "OwnershipTransferred",
      "type": "event"
    },
    {
      "anonymous": false,
      "inputs": [
        {
          "indexed": true,
          "internalType": "address",
          "name": "vault",
          "type": "address"
        },
        {
          "indexed": false,
          "internalType": "string",
          "name": "name",
          "type": "string"
        },
        {
          "indexed": true,
          "internalType": "address",
          "name": "owner",
          "type": "address"
        }
      ],
      "name": "VaultSetup",
      "type": "event"
    },
    {
      "stateMutability": "payable",
      "type": "fallback"
    },
    {
      "inputs": [
        {
          "components": [
            {
              "internalType": "string",
              "name": "name",
              "type": "string"
            },
            {
              "components": [
                {
                  "internalType": "address",
                  "name": "member",
                  "type": "address"
                },
                {
                  "internalType": "string",
                  "name": "name",
                  "type": "string"
                }
              ],
              "internalType": "struct IVault.Member[]",
              "name": "admins",
              "type": "tuple[]"
            },
            {
              "components": [
                {
                  "internalType": "address",
                  "name": "approver",
                  "type": "address"
                },
                {
                  "internalType": "string",
                  "name": "name",
                  "type": "string"
                },
                {
                  "internalType": "uint256",
                  "name": "budget",
                  "type": "uint256"
                }
              ],
              "internalType": "struct IVault.Approver[]",
              "name": "approvers",
              "type": "tuple[]"
            },
            {
              "components": [
                {
                  "internalType": "address",
                  "name": "member",
                  "type": "address"
                },
                {
                  "internalType": "string",
                  "name": "name",
                  "type": "string"
                }
              ],
              "internalType": "struct IVault.Member[]",
              "name": "members",
              "type": "tuple[]"
            }
          ],
          "internalType": "struct IVault.VaultParam[]",
          "name": "params",
          "type": "tuple[]"
        }
      ],
      "name": "batchCreateVault",
      "outputs": [
        {
          "internalType": "address[]",
          "name": "vaultAddresses",
          "type": "address[]"
        }
      ],
      "stateMutability": "nonpayable",
      "type": "function"
    },
    {
      "inputs": [
        {
          "components": [
            {
              "internalType": "string",
              "name": "name",
              "type": "string"
            },
            {
              "components": [
                {
                  "internalType": "address",
                  "name": "member",
                  "type": "address"
                },
                {
                  "internalType": "string",
                  "name": "name",
                  "type": "string"
                }
              ],
              "internalType": "struct IVault.Member[]",
              "name": "admins",
              "type": "tuple[]"
            },
            {
              "components": [
                {
                  "internalType": "address",
                  "name": "approver",
                  "type": "address"
                },
                {
                  "internalType": "string",
                  "name": "name",
                  "type": "string"
                },
                {
                  "internalType": "uint256",
                  "name": "budget",
                  "type": "uint256"
                }
              ],
              "internalType": "struct IVault.Approver[]",
              "name": "approvers",
              "type": "tuple[]"
            },
            {
              "components": [
                {
                  "internalType": "address",
                  "name": "member",
                  "type": "address"
                },
                {
                  "internalType": "string",
                  "name": "name",
                  "type": "string"
                }
              ],
              "internalType": "struct IVault.Member[]",
              "name": "members",
              "type": "tuple[]"
            }
          ],
          "internalType": "struct IVault.VaultParam",
          "name": "param",
          "type": "tuple"
        }
      ],
      "name": "createVault",
      "outputs": [
        {
          "internalType": "address",
          "name": "vaultAddress",
          "type": "address"
        }
      ],
      "stateMutability": "nonpayable",
      "type": "function"
    },
    {
      "inputs": [],
      "name": "owner",
      "outputs": [
        {
          "internalType": "address",
          "name": "",
          "type": "address"
        }
      ],
      "stateMutability": "view",
      "type": "function"
    },
    {
      "inputs": [],
      "name": "renounceOwnership",
      "outputs": [],
      "stateMutability": "nonpayable",
      "type": "function"
    },
    {
      "inputs": [
        {
          "internalType": "address",
          "name": "newOwner",
          "type": "address"
        }
      ],
      "name": "transferOwnership",
      "outputs": [],
      "stateMutability": "nonpayable",
      "type": "function"
    },
    {
      "stateMutability": "payable",
      "type": "receive"
    }
  ],
  "bytecode": {
    "object": "0x608060405234801561001057600080fd5b5061001a3361001f565b61006f565b600080546001600160a01b038381166001600160a01b0319831681178455604051919092169283917f8be0079c531659141344cd1fd0a4f28419497f9722a3daafe3b4186f6b6457e09190a35050565b61370f8061007e6000396000f3fe608060405260043610620000555760003560e01c80632baea82d14620000f1578063715018a6146200012e5780638da5cb5b1462000148578063b72dce1d146200017c578063f2fde38b14620001a157620000a8565b36620000a85760405162461bcd60e51b815260206004820152601c60248201527f466163746f72793a206e6f74206163636570742045544820686572650000000060448201526064015b60405180910390fd5b60405162461bcd60e51b815260206004820152601960248201527f466163746f72793a20756e6b6e6f776e2066756e6374696f6e0000000000000060448201526064016200009f565b348015620000fe57600080fd5b506200011662000110366004620004a6565b620001c6565b60405162000125919062000520565b60405180910390f35b3480156200013b57600080fd5b5062000146620002a4565b005b3480156200015557600080fd5b506000546001600160a01b03165b6040516001600160a01b03909116815260200162000125565b3480156200018957600080fd5b50620001636200019b3660046200056f565b620002bc565b348015620001ae57600080fd5b5062000146620001c0366004620005d1565b620002d3565b60608167ffffffffffffffff811115620001e457620001e4620005ef565b6040519080825280602002602001820160405280156200020e578160200160208202803683370190505b50905060005b828110156200029d576200025b84848381811062000236576200023662000605565b90506020028101906200024a91906200061b565b620002559062000952565b62000352565b82828151811062000270576200027062000605565b6001600160a01b039092166020928302919091019091015280620002948162000a18565b91505062000214565b5092915050565b620002ae620003ec565b620002ba600062000448565b565b6000620002cd620002558362000952565b92915050565b620002dd620003ec565b6001600160a01b038116620003445760405162461bcd60e51b815260206004820152602660248201527f4f776e61626c653a206e6577206f776e657220697320746865207a65726f206160448201526564647265737360d01b60648201526084016200009f565b6200034f8162000448565b50565b6000803383604051620003659062000498565b6200037292919062000b06565b604051809103906000f0801580156200038f573d6000803e3d6000fd5b509150819050336001600160a01b0316826001600160a01b03167fd24646b5b7620cfacf5b84ef81befefbebbe2adb3c90b6495b0594d7961855298560000151604051620003de919062000bfc565b60405180910390a350919050565b6000546001600160a01b03163314620002ba5760405162461bcd60e51b815260206004820181905260248201527f4f776e61626c653a2063616c6c6572206973206e6f7420746865206f776e657260448201526064016200009f565b600080546001600160a01b038381166001600160a01b0319831681178455604051919092169283917f8be0079c531659141344cd1fd0a4f28419497f9722a3daafe3b4186f6b6457e09190a35050565b612ac88062000c1283390190565b60008060208385031215620004ba57600080fd5b823567ffffffffffffffff80821115620004d357600080fd5b818501915085601f830112620004e857600080fd5b813581811115620004f857600080fd5b8660208260051b85010111156200050e57600080fd5b60209290920196919550909350505050565b6020808252825182820181905260009190848201906040850190845b81811015620005635783516001600160a01b0316835292840192918401916001016200053c565b50909695505050505050565b6000602082840312156200058257600080fd5b813567ffffffffffffffff8111156200059a57600080fd5b820160808185031215620005ad57600080fd5b9392505050565b80356001600160a01b0381168114620005cc57600080fd5b919050565b600060208284031215620005e457600080fd5b620005ad82620005b4565b634e487b7160e01b600052604160045260246000fd5b634e487b7160e01b600052603260045260246000fd5b60008235607e198336030181126200063257600080fd5b9190910192915050565b6040805190810167ffffffffffffffff81118282101715620006625762000662620005ef565b60405290565b6040516060810167ffffffffffffffff81118282101715620006625762000662620005ef565b6040516080810167ffffffffffffffff81118282101715620006625762000662620005ef565b604051601f8201601f1916810167ffffffffffffffff81118282101715620006e057620006e0620005ef565b604052919050565b600082601f830112620006fa57600080fd5b813567ffffffffffffffff811115620007175762000717620005ef565b6200072c601f8201601f1916602001620006b4565b8181528460208386010111156200074257600080fd5b816020850160208301376000918101602001919091529392505050565b600067ffffffffffffffff8211156200077c576200077c620005ef565b5060051b60200190565b600082601f8301126200079857600080fd5b81356020620007b1620007ab836200075f565b620006b4565b82815260059290921b84018101918181019086841115620007d157600080fd5b8286015b848110156200086557803567ffffffffffffffff80821115620007f85760008081fd5b908801906040828b03601f1901811315620008135760008081fd5b6200081d6200063c565b6200082a888501620005b4565b8152908301359082821115620008405760008081fd5b620008508c8984870101620006e8565b818901528652505050918301918301620007d5565b509695505050505050565b600082601f8301126200088257600080fd5b8135602062000895620007ab836200075f565b82815260059290921b84018101918181019086841115620008b557600080fd5b8286015b848110156200086557803567ffffffffffffffff80821115620008dc5760008081fd5b908801906060828b03601f1901811315620008f75760008081fd5b6200090162000668565b6200090e888501620005b4565b815260408085013584811115620009255760008081fd5b620009358e8b83890101620006e8565b8a84015250919093013590830152508352918301918301620008b9565b6000608082360312156200096557600080fd5b6200096f6200068e565b823567ffffffffffffffff808211156200098857600080fd5b6200099636838701620006e8565b83526020850135915080821115620009ad57600080fd5b620009bb3683870162000786565b60208401526040850135915080821115620009d557600080fd5b620009e33683870162000870565b60408401526060850135915080821115620009fd57600080fd5b5062000a0c3682860162000786565b60608301525092915050565b60006001820162000a3957634e487b7160e01b600052601160045260246000fd5b5060010190565b6000815180845260005b8181101562000a685760208185018101518683018201520162000a4a565b8181111562000a7b576000602083870101525b50601f01601f19169290920160200192915050565b600081518084526020808501808196508360051b8101915082860160005b8581101562000af9578284038952815180516001600160a01b03168552850151604086860181905262000ae48187018362000a40565b9a87019a955050509084019060010162000aae565b5091979650505050505050565b6000604060018060a01b03808616845260208281860152855160808487015262000b3460c087018262000a40565b905081870151603f1960608189850301818a015262000b54848462000a90565b8a8801518a8203840160808c015280518083529195508601935085850190600581901b8601870160005b8281101562000bcd57601f1988830301845286518a815116835289810151868b85015262000baf8785018262000a40565b918d0151938d01939093529689019693890193915060010162000b7e565b50838d01519950848c82030160a08d015262000bea818b62000a90565b9e9d5050505050505050505050505050565b602081526000620005ad602083018462000a4056fe60806040523480156200001157600080fd5b5060405162002ac838038062002ac88339810160408190526200003491620007fe565b6200003f336200043c565b6200004a826200043c565b80516007906200005b90826200098c565b50600060068190555b8160200151518110156200018f57816020015181815181106200008b576200008b62000a58565b6020026020010151602001516002600084602001518481518110620000b457620000b462000a58565b6020026020010151600001516001600160a01b03166001600160a01b031681526020019081526020016000209081620000ee91906200098c565b508160200151818151811062000108576200010862000a58565b6020026020010151600001516001600160a01b03167f3561247d7bbdd4fc2b28593e9f7c13076bec9a7b8b77d8b5640c402c6758d9998360200151838151811062000157576200015762000a58565b60200260200101516020015160405162000172919062000a9c565b60405180910390a280620001868162000ab8565b91505062000064565b5060005b816040015151811015620003045781604001518181518110620001ba57620001ba62000a58565b60200260200101516001600084604001518481518110620001df57620001df62000a58565b602090810291909101810151516001600160a01b039081168352828201939093526040909101600020835181546001600160a01b031916931692909217825582015160018201906200023290826200098c565b5060409182015160029091015582015180518290811062000257576200025762000a58565b6020026020010151600001516001600160a01b03167f1a34e7bf287df21bc2967a913b0a8acbe20fc469ff67c87f414fa35f26b6208383604001518381518110620002a657620002a662000a58565b60200260200101516020015184604001518481518110620002cb57620002cb62000a58565b602002602001015160400151604051620002e792919062000ae0565b60405180910390a280620002fb8162000ab8565b91505062000193565b5060005b8160600151518110156200043357816060015181815181106200032f576200032f62000a58565b602002602001015160200151600360008460600151848151811062000358576200035862000a58565b6020026020010151600001516001600160a01b03166001600160a01b0316815260200190815260200160002090816200039291906200098c565b5081606001518181518110620003ac57620003ac62000a58565b6020026020010151600001516001600160a01b03167ff791bdbfc3a9993aff18c924c209506e539aaf758b50159035a6c4a922f48a5983606001518381518110620003fb57620003fb62000a58565b60200260200101516020015160405162000416919062000a9c565b60405180910390a2806200042a8162000ab8565b91505062000308565b50505062000b04565b600080546001600160a01b038381166001600160a01b0319831681178455604051919092169283917f8be0079c531659141344cd1fd0a4f28419497f9722a3daafe3b4186f6b6457e09190a35050565b80516001600160a01b0381168114620004a457600080fd5b919050565b634e487b7160e01b600052604160045260246000fd5b604080519081016001600160401b0381118282101715620004e457620004e4620004a9565b60405290565b604051606081016001600160401b0381118282101715620004e457620004e4620004a9565b604051608081016001600160401b0381118282101715620004e457620004e4620004a9565b604051601f8201601f191681016001600160401b03811182821017156200055f576200055f620004a9565b604052919050565b60005b83811015620005845781810151838201526020016200056a565b8381111562000594576000848401525b50505050565b600082601f830112620005ac57600080fd5b81516001600160401b03811115620005c857620005c8620004a9565b620005dd601f8201601f191660200162000534565b818152846020838601011115620005f357600080fd5b6200060682602083016020870162000567565b949350505050565b60006001600160401b038211156200062a576200062a620004a9565b5060051b60200190565b600082601f8301126200064657600080fd5b815160206200065f62000659836200060e565b62000534565b82815260059290921b840181019181810190868411156200067f57600080fd5b8286015b84811015620007125780516001600160401b0380821115620006a55760008081fd5b908801906040828b03601f1901811315620006c05760008081fd5b620006ca620004bf565b620006d78885016200048c565b8152908301519082821115620006ed5760008081fd5b620006fd8c89848701016200059a565b81890152865250505091830191830162000683565b509695505050505050565b600082601f8301126200072f57600080fd5b815160206200074262000659836200060e565b82815260059290921b840181019181810190868411156200076257600080fd5b8286015b84811015620007125780516001600160401b0380821115620007885760008081fd5b908801906060828b03601f1901811315620007a35760008081fd5b620007ad620004ea565b620007ba8885016200048c565b815260408085015184811115620007d15760008081fd5b620007e18e8b838901016200059a565b8a8401525091909301519083015250835291830191830162000766565b600080604083850312156200081257600080fd5b6200081d836200048c565b60208401519092506001600160401b03808211156200083b57600080fd5b90840190608082870312156200085057600080fd5b6200085a6200050f565b8251828111156200086a57600080fd5b62000878888286016200059a565b8252506020830151828111156200088e57600080fd5b6200089c8882860162000634565b602083015250604083015182811115620008b557600080fd5b620008c3888286016200071d565b604083015250606083015182811115620008dc57600080fd5b620008ea8882860162000634565b6060830152508093505050509250929050565b600181811c908216806200091257607f821691505b6020821081036200093357634e487b7160e01b600052602260045260246000fd5b50919050565b601f8211156200098757600081815260208120601f850160051c81016020861015620009625750805b601f850160051c820191505b8181101562000983578281556001016200096e565b5050505b505050565b81516001600160401b03811115620009a857620009a8620004a9565b620009c081620009b98454620008fd565b8462000939565b602080601f831160018114620009f85760008415620009df5750858301515b600019600386901b1c1916600185901b17855562000983565b600085815260208120601f198616915b8281101562000a295788860151825594840194600190910190840162000a08565b508582101562000a485787850151600019600388901b60f8161c191681555b5050505050600190811b01905550565b634e487b7160e01b600052603260045260246000fd5b6000815180845262000a8881602086016020860162000567565b601f01601f19169290920160200192915050565b60208152600062000ab1602083018462000a6e565b9392505050565b60006001820162000ad957634e487b7160e01b600052601160045260246000fd5b5060010190565b60408152600062000af5604083018562000a6e565b90508260208301529392505050565b611fb48062000b146000396000f3fe6080604052600436106101025760003560e01c8063846e55f711610095578063c916b32111610064578063c916b32114610317578063c9c6667414610337578063d16856ca14610370578063d7d1bbdb14610390578063f2fde38b146103b15761014d565b8063846e55f71461027a578063893d20e81461029a5780638da5cb5b146102cc578063c58343ef146102ea5761014d565b80636a84a985116100d15780636a84a985146101f65780636cf4c88f14610215578063715018a61461023557806376a6bf521461024a5761014d565b80631785f53c1461015b57806317d7de7c1461017b5780631d57841b146101a657806324d7806c146101c65761014d565b3661014d57335b6001600160a01b03167fa419615bc8fda4c87663805ee2a3597a6d71c1d476911d9892f340d965bc7bf13460405161014391815260200190565b60405180910390a2005b34156101595733610109565b005b34801561016757600080fd5b506101596101763660046118e6565b6103d1565b34801561018757600080fd5b50610190610431565b60405161019d919061195d565b60405180910390f35b3480156101b257600080fd5b506101596101c1366004611a3d565b6104c3565b3480156101d257600080fd5b506101e66101e13660046118e6565b610580565b604051901515815260200161019d565b34801561020257600080fd5b506006545b60405190815260200161019d565b34801561022157600080fd5b506101596102303660046118e6565b610591565b34801561024157600080fd5b5061015961060f565b34801561025657600080fd5b506101e6610265366004611a94565b60009081526005602052604090205460ff1690565b34801561028657600080fd5b506101e6610295366004611aad565b610623565b3480156102a657600080fd5b506000546001600160a01b03165b6040516001600160a01b03909116815260200161019d565b3480156102d857600080fd5b506000546001600160a01b03166102b4565b3480156102f657600080fd5b5061030a610305366004611a94565b610636565b60405161019d9190611b0f565b34801561032357600080fd5b50610207610332366004611bfb565b61095a565b34801561034357600080fd5b506102076103523660046118e6565b6001600160a01b031660009081526001602052604090206002015490565b34801561037c57600080fd5b5061015961038b366004611d20565b610b85565b6103a361039e366004611a94565b610bf5565b60405161019d929190611d6e565b3480156103bd57600080fd5b506101596103cc3660046118e6565b611481565b6103d96114fa565b6001600160a01b03811660009081526002602052604081206103fa9161187c565b6040516001600160a01b038216907f753f40ca3312b2408759a67875b367955e7baa221daf08aa3d643d96202ac12b90600090a250565b60606007805461044090611d89565b80601f016020809104026020016040519081016040528092919081815260200182805461046c90611d89565b80156104b95780601f1061048e576101008083540402835291602001916104b9565b820191906000526020600020905b81548152906001019060200180831161049c57829003601f168201915b5050505050905090565b6104cb6114fa565b604080516060810182526001600160a01b038581168083526020808401878152848601879052600092835260019182905294909120835181546001600160a01b03191693169290921782559251919290919082019061052a9082611e12565b5060408201518160020155905050826001600160a01b03167f1a34e7bf287df21bc2967a913b0a8acbe20fc469ff67c87f414fa35f26b620838383604051610573929190611ed2565b60405180910390a2505050565b600061058b82611554565b92915050565b6105996114fa565b6001600160a01b0381166000908152600160208190526040822080546001600160a01b031916815591906105cf9083018261187c565b5060006002919091018190556040516001600160a01b038316917f934b94b78a30109ce1509e136c1acd021b5a6e2d7c41d36143dce0a3cc356d0891a250565b6106176114fa565b6106216000611603565b565b600061062f8383611653565b9392505050565b6106856040805161012081018252600080825260208201819052909182019081526020016000815260200160008152602001606081526020016060815260200160608152602001606081525090565b60008281526004602090815260409182902082516101208101845281546001600160a01b039081168252600180840154918216948301949094529093919291840191600160a01b90910460ff16908111156106e2576106e2611ad7565b60018111156106f3576106f3611ad7565b8152602001600282015481526020016003820154815260200160048201805461071b90611d89565b80601f016020809104026020016040519081016040528092919081815260200182805461074790611d89565b80156107945780601f1061076957610100808354040283529160200191610794565b820191906000526020600020905b81548152906001019060200180831161077757829003601f168201915b505050505081526020016005820180546107ad90611d89565b80601f01602080910402602001604051908101604052809291908181526020018280546107d990611d89565b80156108265780601f106107fb57610100808354040283529160200191610826565b820191906000526020600020905b81548152906001019060200180831161080957829003601f168201915b5050505050815260200160068201805461083f90611d89565b80601f016020809104026020016040519081016040528092919081815260200182805461086b90611d89565b80156108b85780601f1061088d576101008083540402835291602001916108b8565b820191906000526020600020905b81548152906001019060200180831161089b57829003601f168201915b505050505081526020016007820180546108d190611d89565b80601f01602080910402602001604051908101604052809291908181526020018280546108fd90611d89565b801561094a5780601f1061091f5761010080835404028352916020019161094a565b820191906000526020600020905b81548152906001019060200180831161092d57829003601f168201915b5050505050815250509050919050565b600033610966816116bc565b806109775750610977816001611653565b6109be5760405162461bcd60e51b81526020600482015260136024820152722b30bab63a1d103737ba10309036b2b6b132b960691b60448201526064015b60405180910390fd5b82516001600160a01b03163314610a175760405162461bcd60e51b815260206004820152601860248201527f5661756c743a20696e76616c696420726571756573746572000000000000000060448201526064016109b5565b600654600081815260046020908152604091829020865181546001600160a01b03199081166001600160a01b0392831617835592880151600180840180549586169290931691821783559489015195975088959294929391926001600160a81b03199092161790600160a01b908490811115610a9557610a95611ad7565b0217905550606082015160028201556080820151600382015560a08201516004820190610ac29082611e12565b5060c08201516005820190610ad79082611e12565b5060e08201516006820190610aec9082611e12565b506101008201516007820190610b029082611e12565b505050600082815260056020908152604091829020805460ff19169055606085810151608087015184518781529384019190915282840152915133927f3469dffa418af33500943abd09be048521bc5938e8b4704db1001e9d5813c2ae928290030190a2600160066000828254610b799190611f0a565b90915550919392505050565b610b8d6114fa565b6001600160a01b0382166000908152600260205260409020610baf8282611e12565b50816001600160a01b03167f3561247d7bbdd4fc2b28593e9f7c13076bec9a7b8b77d8b5640c402c6758d99982604051610be9919061195d565b60405180910390a25050565b6000606082806006541015610c4c5760405162461bcd60e51b815260206004820152601860248201527f5661756c743a20696e76616c696420726571756573744964000000000000000060448201526064016109b5565b60008181526005602052604090205460ff1615610cab5760405162461bcd60e51b815260206004820152601f60248201527f5661756c743a207265717565737420616c72656164792065786563757465640060448201526064016109b5565b600081815260046020908152604080832081516101208101835281546001600160a01b0390811682526001808401549182169583019590955290939192840191600160a01b90910460ff1690811115610d0657610d06611ad7565b6001811115610d1757610d17611ad7565b81526020016002820154815260200160038201548152602001600482018054610d3f90611d89565b80601f0160208091040260200160405190810160405280929190818152602001828054610d6b90611d89565b8015610db85780601f10610d8d57610100808354040283529160200191610db8565b820191906000526020600020905b815481529060010190602001808311610d9b57829003601f168201915b50505050508152602001600582018054610dd190611d89565b80601f0160208091040260200160405190810160405280929190818152602001828054610dfd90611d89565b8015610e4a5780601f10610e1f57610100808354040283529160200191610e4a565b820191906000526020600020905b815481529060010190602001808311610e2d57829003601f168201915b50505050508152602001600682018054610e6390611d89565b80601f0160208091040260200160405190810160405280929190818152602001828054610e8f90611d89565b8015610edc5780601f10610eb157610100808354040283529160200191610edc565b820191906000526020600020905b815481529060010190602001808311610ebf57829003601f168201915b50505050508152602001600782018054610ef590611d89565b80601f0160208091040260200160405190810160405280929190818152602001828054610f2190611d89565b8015610f6e5780601f10610f4357610100808354040283529160200191610f6e565b820191906000526020600020905b815481529060010190602001808311610f5157829003601f168201915b50505091909252505050608081015190915033610f8b8183611653565b610fcd5760405162461bcd60e51b815260206004820152601360248201527215985d5b1d0e88155b985d5d1a1bdc9a5e9959606a1b60448201526064016109b5565b600087815260046020908152604080832081516101208101835281546001600160a01b0390811682526001808401549182169583019590955290939192840191600160a01b90910460ff169081111561102857611028611ad7565b600181111561103957611039611ad7565b8152602001600282015481526020016003820154815260200160048201805461106190611d89565b80601f016020809104026020016040519081016040528092919081815260200182805461108d90611d89565b80156110da5780601f106110af576101008083540402835291602001916110da565b820191906000526020600020905b8154815290600101906020018083116110bd57829003601f168201915b505050505081526020016005820180546110f390611d89565b80601f016020809104026020016040519081016040528092919081815260200182805461111f90611d89565b801561116c5780601f106111415761010080835404028352916020019161116c565b820191906000526020600020905b81548152906001019060200180831161114f57829003601f168201915b5050505050815260200160068201805461118590611d89565b80601f01602080910402602001604051908101604052809291908181526020018280546111b190611d89565b80156111fe5780601f106111d3576101008083540402835291602001916111fe565b820191906000526020600020905b8154815290600101906020018083116111e157829003601f168201915b5050505050815260200160078201805461121790611d89565b80601f016020809104026020016040519081016040528092919081815260200182805461124390611d89565b80156112905780601f1061126557610100808354040283529160200191611290565b820191906000526020600020905b81548152906001019060200180831161127357829003601f168201915b50505050508152505090506112ad6000546001600160a01b031690565b6001600160a01b0316336001600160a01b0316141580156112d457506112d233611554565b155b80156112f157503360009081526001602052604090206002015415155b15611323576080810151336000908152600160205260408120600201805490919061131d908490611f22565b90915550505b6000888152600560205260409020805460ff191660011790556113433390565b6060808301516080840151604080518d815260208101939093528201526001600160a01b0392909216917f377b6b5c8c80be7afdc0736c143b061a3bf2472610e99099b85558d396de237a910160405180910390a26000816040015160018111156113b0576113b0611ad7565b0361144a57602081015160608201516040516001600160a01b0383169180156108fc02916000818181858888f1935050505061142e5760405162461bcd60e51b815260206004820152601760248201527f5661756c743a206e6f7420656e6f75676820657468657200000000000000000060448201526064016109b5565b6001975060405180602001604052806000815250965050611477565b6114748160a00151826060015183602001516001600160a01b03166116e29092919063ffffffff16565b95505b5050505050915091565b6114896114fa565b6001600160a01b0381166114ee5760405162461bcd60e51b815260206004820152602660248201527f4f776e61626c653a206e6577206f776e657220697320746865207a65726f206160448201526564647265737360d01b60648201526084016109b5565b6114f781611603565b50565b6000546001600160a01b031633146106215760405162461bcd60e51b815260206004820181905260248201527f4f776e61626c653a2063616c6c6572206973206e6f7420746865206f776e657260448201526064016109b5565b6001600160a01b0381166000908152600260205260408120805482919061157a90611d89565b80601f01602080910402602001604051908101604052809291908181526020018280546115a690611d89565b80156115f35780601f106115c8576101008083540402835291602001916115f3565b820191906000526020600020905b8154815290600101906020018083116115d657829003601f168201915b5050925115159695505050505050565b600080546001600160a01b038381166001600160a01b0319831681178455604051919092169283917f8be0079c531659141344cd1fd0a4f28419497f9722a3daafe3b4186f6b6457e09190a35050565b6000806116686000546001600160a01b031690565b6001600160a01b0316846001600160a01b0316149050808061168e575061168e84611554565b806116b457506001600160a01b0384166000908152600160205260409020600201548311155b949350505050565b6001600160a01b0381166000908152600360205260408120805482919061157a90611d89565b60606116b4848484604051806060016040528060298152602001611f56602991396060824710156117645760405162461bcd60e51b815260206004820152602660248201527f416464726573733a20696e73756666696369656e742062616c616e636520666f6044820152651c8818d85b1b60d21b60648201526084016109b5565b600080866001600160a01b031685876040516117809190611f39565b60006040518083038185875af1925050503d80600081146117bd576040519150601f19603f3d011682016040523d82523d6000602084013e6117c2565b606091505b50915091506117d3878383876117de565b979650505050505050565b6060831561184d578251600003611846576001600160a01b0385163b6118465760405162461bcd60e51b815260206004820152601d60248201527f416464726573733a2063616c6c20746f206e6f6e2d636f6e747261637400000060448201526064016109b5565b50816116b4565b6116b483838151156118625781518083602001fd5b8060405162461bcd60e51b81526004016109b5919061195d565b50805461188890611d89565b6000825580601f10611898575050565b601f0160209004906000526020600020908101906114f791905b808211156118c657600081556001016118b2565b5090565b80356001600160a01b03811681146118e157600080fd5b919050565b6000602082840312156118f857600080fd5b61062f826118ca565b60005b8381101561191c578181015183820152602001611904565b8381111561192b576000848401525b50505050565b60008151808452611949816020860160208601611901565b601f01601f19169290920160200192915050565b60208152600061062f6020830184611931565b634e487b7160e01b600052604160045260246000fd5b604051610120810167ffffffffffffffff811182821017156119aa576119aa611970565b60405290565b600082601f8301126119c157600080fd5b813567ffffffffffffffff808211156119dc576119dc611970565b604051601f8301601f19908116603f01168101908282118183101715611a0457611a04611970565b81604052838152866020858801011115611a1d57600080fd5b836020870160208301376000602085830101528094505050505092915050565b600080600060608486031215611a5257600080fd5b611a5b846118ca565b9250602084013567ffffffffffffffff811115611a7757600080fd5b611a83868287016119b0565b925050604084013590509250925092565b600060208284031215611aa657600080fd5b5035919050565b60008060408385031215611ac057600080fd5b611ac9836118ca565b946020939093013593505050565b634e487b7160e01b600052602160045260246000fd5b60028110611b0b57634e487b7160e01b600052602160045260246000fd5b9052565b60208152611b296020820183516001600160a01b03169052565b60006020830151611b4560408401826001600160a01b03169052565b506040830151611b586060840182611aed565b5060608301516080830152608083015160a083015260a08301516101208060c0850152611b89610140850183611931565b915060c0850151601f19808685030160e0870152611ba78483611931565b935060e08701519150610100818786030181880152611bc68584611931565b908801518782039092018488015293509050611be28382611931565b9695505050505050565b8035600281106118e157600080fd5b600060208284031215611c0d57600080fd5b813567ffffffffffffffff80821115611c2557600080fd5b908301906101208286031215611c3a57600080fd5b611c42611986565b611c4b836118ca565b8152611c59602084016118ca565b6020820152611c6a60408401611bec565b6040820152606083013560608201526080830135608082015260a083013582811115611c9557600080fd5b611ca1878286016119b0565b60a08301525060c083013582811115611cb957600080fd5b611cc5878286016119b0565b60c08301525060e083013582811115611cdd57600080fd5b611ce9878286016119b0565b60e0830152506101008084013583811115611d0357600080fd5b611d0f888287016119b0565b918301919091525095945050505050565b60008060408385031215611d3357600080fd5b611d3c836118ca565b9150602083013567ffffffffffffffff811115611d5857600080fd5b611d64858286016119b0565b9150509250929050565b82151581526040602082015260006116b46040830184611931565b600181811c90821680611d9d57607f821691505b602082108103611dbd57634e487b7160e01b600052602260045260246000fd5b50919050565b601f821115611e0d57600081815260208120601f850160051c81016020861015611dea5750805b601f850160051c820191505b81811015611e0957828155600101611df6565b5050505b505050565b815167ffffffffffffffff811115611e2c57611e2c611970565b611e4081611e3a8454611d89565b84611dc3565b602080601f831160018114611e755760008415611e5d5750858301515b600019600386901b1c1916600185901b178555611e09565b600085815260208120601f198616915b82811015611ea457888601518255948401946001909101908401611e85565b5085821015611ec25787850151600019600388901b60f8161c191681555b5050505050600190811b01905550565b604081526000611ee56040830185611931565b90508260208301529392505050565b634e487b7160e01b600052601160045260246000fd5b60008219821115611f1d57611f1d611ef4565b500190565b600082821015611f3457611f34611ef4565b500390565b60008251611f4b818460208701611901565b919091019291505056fe416464726573733a206c6f772d6c6576656c2063616c6c20776974682076616c7565206661696c6564a2646970667358221220fc2169dfe87fc6a6a1f898113880fc4db6b28e02b9a2d7283312e07f194192b564736f6c634300080f0033a26469706673582212205dce91d95daba5d5c7f14dadc99a7bbf3044b9c9d57fb44329a87770cfd181b764736f6c634300080f0033",
    "linkReferences": {}
  },
  "methodIdentifiers": {
    "batchCreateVault((string,(address,string)[],(address,string,uint256)[],(address,string)[])[])": "2baea82d",
    "createVault((string,(address,string)[],(address,string,uint256)[],(address,string)[]))": "b72dce1d",
    "owner()": "8da5cb5b",
    "renounceOwnership()": "715018a6",
    "transferOwnership(address)": "f2fde38b"
  },
  "id": 13
}